:100000000C9434000C943E000C943E000C943E0082
:100010000C943E000C943E000C943E000C943E0068
:100020000C943E000C943E000C943E000C943E0058
:100030000C943E000C943E000C943E000C943E0048
:100040000C943E000C943E000C943E000C943E0038
:100050000C943E000C943E000C943E000C943E0028
:100060000C943E000C943E0011241FBECFEFD8E04C
:10007000DEBFCDBF0E947C000C949A000C9400005F
:10008000239A8093B300E0EBF0E080818068808366
:10009000808183608083E1EBF0E0808182608083F7
:1000A0000895559A88BD84B5806284BD84B5836007
:1000B00084BD85B5826085BD0895569A87BD84B597
:1000C000806884BD84B5836084BD85B5826085BD4C
:1000D0000895239B03C08093B30008950C944000BF
:1000E000559B02C088BD08950C945100569B02C0D8
:1000F00087BD08950C945D0080E80E94510080E85F
:100100000E945D0080E80E944000C0E08C2F0E94A9
:1001100070008C2F0E9476008C2F0E9469002FEFB8
:1001200081EE94E0215080409040E1F700C0000053
:08013000CF5FECCFF894FFCF84
:00000001FF
